:020000040800F2
:10000000A00F0020C9010008FF1500081115000805
:10001000FD150008CF020008572F0008000000005F
:10002000000000000000000000000000A919000806
:10003000D102000800000000A7190008AB19000851
:10004000E3010008E3010008E3010008E301000800
:10005000E3010008E3010008E3010008E3010008F0
:10006000E3010008E3010008E3010008E3010008E0
:10007000E3010008E3010008E3010008E3010008D0
:10008000E3010008E3010008E3010008E3010008C0
:10009000E12E0008E3010008E3010008E301000885
:1000A000E3010008E3010008E3010008E3010008A0
:1000B000E3010008E3010008E3010008E301000890
:1000C000E3010008E3010008E3010008E301000880
:1000D000E3010008E3010008E3010008E301000870
:1000E000E3010008E3010008E301000800F002F862
:1000F00000F05AF80AA090E8000C82448344AAF168
:100100000107DA4501D100F04FF8AFF2090EBAE865
:100110000F0013F0010F18BFFB1A43F0010318473B
:100120003C3300005C3300000A444FF0000C10F830
:10013000013B13F0070408BF10F8014B1D1108BF65
:1001400010F8015B641E05D010F8016B641E01F805
:10015000016BF9D113F0080F1EBF10F8014BAD1C55
:100160000C1B09D16D1E58BF01F801CBFAD505E073
:1001700014F8016B01F8016B6D1EF9D59142D6D3CD
:10018000704700000023002400250026103A28BFF5
:1001900078C1FBD8520728BF30C148BF0B607047F9
:1001A0001FB51FBD10B510BD00F058F81146FFF780
:1001B000F7FF02F0E1FE00F076F803B4FFF7F2FF7C
:1001C00003BC00F07DF8000009488047094800475B
:1001D000FEE7FEE7FEE7FEE7FEE7FEE7FEE7FEE7F7
:1001E000FEE7FEE704480549054A064B7047000054
:1001F000251A0008ED000008A0090020A00F00202B
:10020000A00B0020A00B00204FF0000200B5134609
:1002100094469646203922BFA0E80C50A0E80C5026
:10022000B1F12001BFF4F7AF090728BFA0E80C50D7
:1002300048BF0CC05DF804EB890028BF40F8042BD0
:1002400008BF704748BF20F8022B11F0804F18BF3D
:1002500000F8012B7047704770477047754600F0F3
:100260002BF8AE4605006946534620F00700854648
:1002700018B020B5FFF7B6FFBDE820404FF00006EC
:100280004FF000074FF000084FF0000B21F007017E
:10029000AC46ACE8C009ACE8C009ACE8C009ACE8C1
:1002A000C0098D46704710B50446AFF30080204664
:1002B000BDE81040FFF781BF004870473C090020AF
:1002C00001491820ABBEFEE7260002007047FEE79A
:1002D000704772B6FEE7000070B5044600F008F9FA
:1002E0000546601C02D004480078044400F000F980
:1002F000401BA042FAD370BD640000202DE9F84FE6
:10030000DFF8B8910024A9F1040B23460F2709F167
:10031000040AABF1040EC9E00125A5402A40AA4217
:100320007DD1674ED1F804C0ACEB0608B44532D09D
:1003300014DCBCF1030F3AD009DCBCF1000F2AD069
:10034000BCF1010F1CD0BCF1020F31D11DE0BCF19A
:10035000110F17D0BCF1120F2AD119E0B8F5881F80
:1003600019D006DCB8F5803F15D0B8F5801F1FD135
:1003700011E0B8F5001F0ED0B8F5041F18D10AE03F
:10038000CB6815E0CB681B1D12E0CB6808330FE08B
:10039000CB680C330CE08B682BB1012B4FF00803BA
:1003A00003D0456104E0042302E0056100E000237E
:1003B000FF2A01D8064601E000F104064FEA840551
:1003C00001D9A5F12005D6F8008007FA05FC28EA36
:1003D0000C0803FA05F548EA0508C6F800804D68E0
:1003E000ED0062D5374DAE6946F00106AE61AD69EC
:1003F00024F0030605F001050095334D06EB050CCE
:10040000DCF80850A607360F07FA06F825EA0805B3
:10041000DFF8B880404503D14FF0000817E044E012
:10042000DFF8AC80404502D14FF001080FE0DFF863
:10043000A480404502D14FF0020808E0DFF8988020
:10044000404502D14FF0030801E04FF0040808FADC
:1004500006F848EA0508CCF808804D68D9F800602D
:10046000ED024D4601D5164300E096432E604D68DF
:10047000DAF80060AD02554601D5164300E0964318
:100480002E604D68DBF80060AD035D4601D5164374
:1004900000E096432E604D68DEF80060ED0375467F
:1004A00001D5164300E096432E60641C0D682A4671
:1004B000E5407FF431AFBDE8F88F0000080401404B
:1004C000000011100010024000000140000801402F
:1004D000000C0140001001400014014080680840F9
:1004E00000D0012070470AB1016170470904FBE7A1
:1004F000014880687047000064000020024881685D
:10050000027811448160704764000020074810B5EC
:10051000016841F010010160032000F075F80F2020
:1005200000F006F800F024F8002010BD0020024082
:1005300070B50D4D04464FF47A712878B1FBF0F098
:100540000A490968B1FBF0F000F0CEFF48B9102C61
:1005500007D200222146501E00F036F800206C60C1
:1005600070BD012070BD00006400002070000020FC
:100570000C4808B5816941F001018161816901F090
:1005800001010091C16941F08051C161C06900F071
:10059000805000900448416821F0E06141F0007112
:1005A000416008BD0010024000000140002809DB46
:1005B00000F01F02012191404009800000F1E0207D
:1005C000C0F8001170470000F0B40E4B1B680C46D9
:1005D000C3F30223C3F10705042D00D90425191D17
:1005E000072901D2002300E0DB1E012606FA05F1EF
:1005F000491E214099409E40761E16403143F0BC72
:1006000002F0AABC0CED00E0064900F00702086801
:100610004FF6FF03184040EA0220034A10430860E7
:10062000704700000CED00E00000FA0510B50C0664
:1006300007D501F0070101EB810100EBC10010308B
:1006400005E001EB810100EBC10000F5A87099B253
:1006500032B1012202730181190C4181002010BDC9
:1006600000220273C180F9E7704701EB810200EBC1
:10067000C202D0F8D402526A01F013BC01EB81022D
:1006800000EBC202D0F8D402D2F8642101F06CBCB5
:1006900070B504460B0601F0070000EB800104EB87
:1006A000C1014FF001024FF0000502D54A7410312C
:1006B00003E081F8515101F5A871087094F8900297
:1006C000012808D084F89022206802F09DF884F870
:1006D0009052002070BD022070BD70B5044601F03C
:1006E0000F002279904201D9012070BD0B0601F064
:1006F000070000EB800104EBC1014FF001024FF055
:10070000000502D54A74103103E081F8515101F51A
:10071000A8718D70087094F89002012808D084F8B0
:100720009022206802F00DF984F89052002070BDEC
:10073000022070BD2DE9F05F04685FEA424C0B783F
:100740008D69B4F850C04FF000064BF68F7948F22F
:10075000800A48F68F7B48F2C00E4FF480672AD596
:100760004FF0020808EBC308C44407EB4C07E45BF6
:10077000C4F30904A54203D32D1B8D6101D00BE006
:100780008E61066836F8235005EA090585F40055A0
:1007900045EA0A0526F82350520609D50D78036864
:1007A00033F8252002EA0B0242EA0E0223F8252044
:1007B00084B30A8929E04FF0060808EBC308C44453
:1007C00007EB4C07E45BC4F30904A54203D32D1BDC
:1007D0008D6101D00BE08E61066836F8235005EA82
:1007E000090585F4005545EA0A0526F82350520606
:1007F00009D40B78056835F8232002EA0B0242EA97
:100800000E0225F823202CB14A8949690068234645
:1008100002F070FB2046BDE8F09F2DE9F05F054631
:1008200000680C465FEA426C16468B692278B0F885
:1008300050C048F68F774CF280094FF4004B4FF6CA
:10084000FF7E4FF4806A4FF0000172D54FF002082E
:1008500008EBC208E0440AEB480C30F80C00C0F387
:100860000900834211D91B1AA3610FD0730407D565
:100870002E6836F822303B4043EA090326F822303E
:1008800094F82420012A47D052E1A161607810B188
:10089000012813D01AE02868B0F85030184400EB53
:1008A0000210B0F80424C2F30902A0F80424B0F83E
:1008B000042442F40042A0F8042407E02868B0F8B9
:1008C0005030184400EB0210A0F804146278286835
:1008D00012B1012A11D018E0B0F850100844217864
:1008E00000EB0110B0F80C14C1F30901A0F80C14CE
:1008F000B0F80C1441F4004105E0B0F85020104469
:10090000227800EB0210A0F80C1421782846FFF79B
:10091000ACFE700472D40BE1626902446261E26968
:100920000244E2612369226A9A4203D31846111AEB
:1009300004E03EE084F824100AB110462162617898
:1009400011B1012929D031E02968B1F850201144B2
:10095000227801EB0211B1F80424C2F30902A1F8D4
:10096000042401F204413E2807D94209C30600D1FC
:10097000521E0B884BEA822207E048B14208C307A7
:1009800000D0521C0B880EEA822213430B800DE02C
:100990000A8842F400420A8008E02968B1F8502031
:1009A0001144227801EB0211A1F8040483B22289D8
:1009B000BAE04FF0060808EBC208E0440AEB480C26
:1009C00030F80C00C0F30900834211D31B1AA36155
:1009D0000FD0730407D42E6836F822303B4043EA28
:1009E000090326F8223094F82420012A51D09FE0F0
:1009F000A161607818B1012814D01BE03FE028689D
:100A0000B0F85030184400EB0210B0F80424C2F3E0
:100A10000902A0F80424B0F8042442F40042A0F82B
:100A2000042407E02868B0F85030184400EB0210A6
:100A3000A0F804146278286812B1012A11D018E0D5
:100A4000B0F850100844217800EB0110B0F80C14F5
:100A5000C1F30901A0F80C14B0F80C1441F40041E2
:100A600005E0B0F850201044227800EB0210A0F806
:100A70000C1421782846FFF7F8FD700458D422782A
:100A8000296831F82200384040EA090021F82200A4
:100A90004EE0626902446261E2690244E2612369F4
:100AA000226A9A4203D31846111A216204E00AB15D
:100AB0001046216284F824106278296812B1012A54
:100AC00028D02FE0B1F850201144227801EB021118
:100AD000B1F80C24C2F30902A1F80C2401F20C4174
:100AE0003E2807D94209C30600D1521E0B884BEAA3
:100AF000822207E048B14208C30700D0521C0B888D
:100B00000EEA822213430B800CE00A8842F4004272
:100B10000A8007E0B1F850201144227801EB02115D
:100B2000A1F80C04628983B26169286802F000FAB6
:100B30002278296831F8220048F6BF73184080F007
:100B4000300048F28003184321F822000020BDE85D
:100B5000F09F2DE9F04104460F0601F0070000EB7D
:100B6000800104EBC1014FF001064FF0000502D5F2
:100B70004E74103103E081F8515101F5A871022B38
:100B800008700A61CB7000D10D7194F890020128B1
:100B900009D084F89062206801F0E6FC284684F8C9
:100BA0009052BDE8F0810220FBE710B501F0070488
:100BB00004EB840100EBC101C1E959230022C1F813
:100BC0006C2181F8512181F85041006801F5A8712C
:100BD00001F00CFF002010BD70B504460D4601F079
:100BE00007002179884201D9012070BD29064FF004
:100BF00000064FF0010206D500EB800104EBC101B5
:100C00004A74103107E005EB850104EBC10181F85E
:100C1000516101F5A8718A70087094F8900201285A
:100C200007D084F89022206801F0C7FE680702D040
:100C300006E0022070BD04F52671206801F07FFEF9
:100C400084F89062002070BD10B501F0070404EB39
:100C5000840100EBC101C1E90923012281F834209C
:100C60000B630023CB624A7401F8104F006801F057
:100C7000BDFE002010BD00001FB50446006802F054
:100C800035F9010403D5204600F0BAFC1FBD41052B
:100C90000DD5206830F8441F21F480610180204682
:100CA00000F000F90021204600F017F91FBD4104B3
:100CB00005D5206830F8441F21F4804174E0810498
:100CC00005D5206830F8441F21F400516CE0C104C0
:100CD00014D5206830F8401F21F0040101802068FD
:100CE00030F8401F21F008010180204600F0EDF8A7
:100CF000206830F8441F21F4805155E0010540D5AB
:100D0000D4F800200020694632F8203021F8103055
:100D1000401CC0B20828F7D332F8400F40F0010061
:100D20001080206830F8402F22F0010202802068F5
:100D3000B0F844205205FBD530F8442F22F48062ED
:100D400002800020236831F8102023F82020401C66
:100D5000C0B20828F6D3206830F8401F41F00801DF
:100D60000180206830F8441F21F400610180206870
:100D700030F8401F41F004010180204600F0E0F807
:100D80001FBD810509D5206830F8441F21F400718A
:100D90000180204600F09DF81FBDC005FCD52068ED
:100DA00030F8441F21F4807101801FBD2DE9F0410E
:100DB000040004D094F89102002518B107E0012046
:100DC000BDE8F08184F89052204600F04DF80320F1
:100DD00084F891026571206801F0AAFD94E80F0083
:100DE00001F010FD022698BB0021206802F098F85F
:100DF00070BB002001270BE000EB800104EBC10178
:100E00004F740874CD740D624D62401CC0B28D6287
:100E100021798142F0D8002012E000BF00EB800170
:100E200004EBC10181F8515181F8500181F853510F
:100E3000C1F86051C1F86451401CC0B2C1F868519A
:100E400021798142EAD894E80F0001F068FD10B1E1
:100E500084F89162B3E7657384F89172206801F0B9
:100E60005CFD0020ACE7000008B500680B49884233
:100E700012D10B48C16941F40001C161C06900226F
:100E800000F40000009011461420FFF79DFBBDE820
:100E900008401420FFF78ABB08BD0000005C00403A
:100EA0000010024070B5044680790125022801D067
:100EB000FFF70FFA2946D4F8D40201F02DF9D4F83F
:100EC000D402BDE8704001F0E9B8D0F8D40201F0D6
:100ED0000DB9D0F8D40201F013B910B5044690F85A
:100EE000900201280AD0012084F8900261732068E2
:100EF00002F018F8002084F8900210BD022010BD06
:100F0000D0F8D42200F52671104601F011B910B5C1
:100F1000044690F89002012810D0012084F8900235
:100F2000206801F0D4FF01212046FFF79DFB2068D7
:100F300001F0F1FC002084F8900210BD022010BDE9
:100F400010B50446D0F8D40201F031F9A07A002897
:100F500004D00348016841F00601016010BD0000A3
:100F600010ED00E02DE9F84305460078354CC00748
:100F700054D0E0690026C00008D4E06940F08050F9
:100F8000E061E069012600F0805000902E48016881
:100F9000C90512D40168804641F480710160FFF7F1
:100FA000A7FA074605E000BFFFF7A2FAC01B6428B6
:100FB00023D8D8F80000C005F6D5206A10F4407098
:100FC00021D0A98801F4407181421CD0206A1F49B8
:100FD000012220F440700A6000220A602062C007EB
:100FE00011D0FFF785FA074641F2883808E000BFC4
:100FF000FFF77EFAC11B414502D90320BDE8F88303
:10100000206A8007F4D5206A696820F4407008439C
:1010100020621EB1E06920F08050E06128788007EE
:1010200005D56068A96820F44040084360602878CE
:10103000C00605D56068E96820F480000843606058
:101040000020DBE7001002400070004040044242F4
:101050002DE9F0470F46050061D0434E306800F09F
:101060000700B84209D2306820F0070038433060EA
:10107000306800F00700B84251D128683B4C810726
:1010800012D5400703D5606840F4E06060602878BE
:10109000000703D5606840F4605060606068A9682C
:1010A00020F0F000084360602878C00728D0686806
:1010B000012810D02168022810D0890700292EDAD3
:1010C000616821F0030101436160FFF711FA804676
:1010D00041F288390DE021688903EFE78901EDE7E6
:1010E000FFF706FAA0EB0801494502D90320BDE845
:1010F000F0876068696800F00C00B0EB810FEFD1F9
:10110000306800F00700B8420BD9306820F00700C3
:1011100038433060306800F00700B84201D0012049
:10112000E5E72878400705D56068E96820F4E060C5
:10113000084360602878000706D56068296920F4B4
:10114000605040EAC100606000F018F86168084A29
:10115000C1F30311515CC8400649086006480068A5
:10116000FFF7E6F90020C2E700200240001002402D
:101170004A34000870000020680000200E4A5168C0
:101180000E4801F00C03042B11D0082B0FD10C4892
:10119000C1F38343C903C05C0AD55168084AC1F34F
:1011A0004041921E515C054A5043B0FBF1F070473C
:1011B00004494843704700000010024000127A00C2
:1011C0003A34000800093D002DE9F84F040070D0C2
:1011D0002078C04DC00749D06868C0F3810001285D
:1011E00007D06868C0F38100022809D16868C0038D
:1011F00006D52868800339D560680028E7D035E037
:101200006068B0F5803F0BD010B1B0F5A02F11D0C1
:10121000286820F480302860286820F4802002E0CC
:10122000286840F480302860606890B1FFF760F96A
:1012300006460AE0286840F480202860F0E700BFF6
:10124000FFF756F9801B642873D828688003F7D508
:101250000CE0FFF74DF9064605E000BFFFF748F93F
:10126000801B6428F0D828688003F7D420789A4E31
:1012700080074FF001094FF0000839D5686810F079
:101280000C0F07D06868C0F38100022809D1686894
:10129000C00306D42868800714D52069012808D126
:1012A00010E02069B0B1C6F80090FFF721F90746B9
:1012B00005E00AE1FFF71CF9C01B0228C4D8286822
:1012C0008007F7D52868616920F0F80040EAC1007E
:1012D00028600DE0C6F80080FFF70AF9074604E031
:1012E000FFF706F9C01B022823D828688007F7D427
:1012F000207800072CD57948A169D9B1C0F80090B1
:10130000FFF7F6F8074604E0FFF7F2F8C01B0228E3
:101310000FD8686A8007F7D571484FF4FA51006812
:10132000B0FBF1F0009000BF0098411E0091FAD28E
:101330000EE080E0C0F80080FFF7DAF8074604E02E
:10134000FFF7D6F8C01B022875D8686A8007F7D463
:101350002078400760D5E8690027C00008D4E86914
:1013600040F08050E861E869012700F0805000906B
:101370005C480168C90513D40168834641F4807153
:101380000160FFF7B5F8824606E000BFFFF7B0F84E
:10139000A0EB0A0064284ED8DBF80000C005F5D5A4
:1013A000E06801280AD008B1052813D0286A20F087
:1013B00001002862286A20F0040002E0286A40F058
:1013C00001002862E06841F2883B98B1FFF790F88D
:1013D00082460BE0286A40F004002862EEE700BF76
:1013E000FFF786F8A0EB0A0159455AD8286A80070A
:1013F000F6D50CE0FFF77CF8824605E0FFF778F8B9
:10140000A0EB0A0159454CD8286A8007F6D41FB1D1
:10141000E86920F08050E861E06988B36968C1F349
:101420008101022944D00228C6F8608004D0FFF769
:101430005FF8044638E034E0FFF75AF8074604E066
:10144000FFF756F8C01B02282BD828688001F7D474
:10145000206AB0F5803F05D16868A16820F40030AB
:1014600008436860D4E908010843696821F47411ED
:1014700008436860C6F86090FFF73AF8044606E053
:1014800025E000BFFFF734F8001B022809D82868C0
:101490008001F7D51BE000BFFFF72AF8001B0228E8
:1014A00002D90320BDE8F88F28688001F4D40EE04B
:1014B0000128F7D06868226A00F48031914204D193
:1014C000616A00F47010884201D00120EAE7002030
:1014D000E8E700000010024000004242800442425F
:1014E000700000200070004010B5401EB0F1807FF9
:1014F00001D3012010BD4FF0E02460610F2160177F
:1015000001F02AFD0020A06107202061002010BD0D
:10151000FEE70000F0B500230A24302537261F46D9
:1015200011E000BFB4EB107F02D905EB107C01E0A5
:1015300006EB107C01F813C001EB430C00015B1CAF
:101540008CF80170DBB29342ECD3F0BD70B586B07D
:10155000002418480094019402940394816941F096
:1015600020018161816901F020010491816941F0CC
:10157000040181618069104E00F004000490002293
:101580001E213046FEF7AFFF1E20009001AA012069
:10159000022582E8310069463046FEF7AFFE4FF47F
:1015A00078708DE8310069463046FEF7A7FE06B038
:1015B00070BD0000001002400008014010B500227C
:1015C0000B490C4800F046FC08B1FEF782FE0A49C0
:1015D000084800F012FE08B1FEF77BFE054800F057
:1015E00061FE002803D0BDE81040FEF772BE10BDBA
:1015F000140000208C01002078000020FEE7FEE7A8
:101600002DE9F84F044640F68F7B48F60F794FF4EA
:1016100080684FF0000ABDE1B0F8441011F00F05EA
:1016200039D030F8256031047ED530F8251001EA34
:101630000B0141F0800120F8251005EB850004EB3B
:10164000C00797F85C0107F5A87700286DD0F878F7
:1016500002286BD03978226832F8210048F68F735F
:10166000184048F2C003184322F821003978206856
:1016700030F82120B0F8503052047DD5022202EB20
:10168000C1015A1808EB4201415A8905890D0091A0
:1016900073D03A89DDE0C9062BD4018801EA09013B
:1016A00041F400410180206804F11005B0F8503089
:1016B000217C022202EBC1015A1808EB4201405A78
:1016C000C0F30900E062616A0844606200212046BC
:1016D000FEF7CBFF607B00289DD0A86900289AD137
:1016E000607B216840F08000A1F84C0084F80DA0D8
:1016F00050E1018804F5A8750A0521D5B0F85020FD
:101700002B78062101EBC3010A4408EB4201405A41
:1017100004F52671C0F30903EB61EA88206801F043
:10172000E9FB2068018802E0AEE06EE07EE001EABD
:101730000B0141F0800101802046FFF7E1FB29E128
:101740000904D5D5018801EA0B0141F0800101802F
:101750002068B0F850202B78062101EBC3010A4421
:1017600008EB4201405A83059B0DEB6110D069697B
:1017700071B1EA88206801E05FE05DE001F0BAFB4A
:10178000E96968690844686100212046FEF776FF30
:10179000216808880205ABD4C0F301300328A7D024
:1017A000B1F850000844B0F80C14C1F30901A0F8D6
:1017B0000C142A6900F20C403E2A09D95109D206BC
:1017C00000D1491E02884FF4004343EA812109E019
:1017D000B2B15108D20700D0491C02884FF6FF73FE
:1017E00003EA81210A430280216808884BF68F7240
:1017F000104080F4405048F2800210430880C9E055
:10180000018841F400410180EEE72068B0F85020E3
:101810003B78062101EBC3010A4408EB4201415A1F
:101820008905890D009118D0FA8812E032463946B0
:101830002046FEF77FFF00900FE0062202EBC10179
:101840005A1808EB4201415A8905890D009104D0CC
:101850007A897969009B01F04DFBF8690099084489
:10186000F8617969009808447861B86918B13969F4
:101870000098814204D939782046FEF7FFFE03E044
:101880003946206801F0B2F830062ED505EB850008
:1018900004EBC001206830F8252002EA090242F476
:1018A000004220F82520C87C103101281ED0F00508
:1018B0006CD42068B0F850300D78022202EBC502DB
:1018C0001A4408EB4202805A8A69C0F30900824236
:1018D00055D9121A8A6154D04A6902444A61CA69C8
:1018E0001044C861206801F081F853E0C1F818A0E5
:1018F000087B524608B3700620D5487810B10128FD
:1019000012D03AE02068B0F8502010440A7800EB7A
:101910000210B0F80424C2F30902A0F80424B0F8BD
:10192000042442F4004206E02068B0F85030184425
:101930000B7800EB0310A0F804241EE04B7820681D
:1019400013B1012B11D018E0B0F8502010440A78E0
:1019500000EB0210B0F80C24C2F30902A0F80C242A
:10196000B0F80C2442F4004205E0B0F850301844BE
:101970000B7800EB0310A0F80C24097802E0C1F802
:1019800018A0E9B22046FEF770FE03E0324620467A
:10199000FEF743FF2068B0F8441009043FF53CAE61
:1019A0000020BDE8F88F70477047FEF7A7BD30B53F
:1019B00093B028216846FEF727FC14210AA8FEF7F9
:1019C00023FC002401200F9410941194010412941C
:1019D0008DE8130004904FF4E010CDE908100225C3
:1019E00007956846FFF7F0FB08B172B6FEE70F20D7
:1019F000CDE90A054FF48060CDE90C4002210AA828
:101A00000E94FFF725FB08B172B6FEE710200F9089
:101A100012940FA8FFF7A6FA002801D072B6FEE7CD
:101A200013B030BD704710B5D0F8B422526890475B
:101A3000002010BD134610B50A46002100F025FB1A
:101A4000002010BD134610B50A46002100F0B8FB77
:101A5000002010BD10B50446802100F096FB204602
:101A6000BDE81040002100F090BB10B50521002317
:101A7000C0F894121A46194600F007FB002010BD6A
:101A800010B50223C261C0F89432026213460A46BE
:101A9000002100F095FB002010BD10B504210023AB
:101AA000C0F894121A46194600F08AFB002010BDB7
:101AB00010B50A46024903A000F0E2F8004810BD44
:101AC0005004002048494420436F6E666967000057
:101AD00012200880004870473400002010B50A46E4
:101AE000024903A000F0CCF8004810BD50040020CB
:101AF00048494420496E7465726661636500000060
:101B000004200880004870473000002010B50A46C5
:101B1000024903A000F0B4F8004810BD50040020B2
:101B200053544D6963726F656C656374726F6E694F
:101B30006373000010B50A46024903A000F0A0F844
:101B4000004810BD5004002053544D3332204875D6
:101B50006D616E20696E7465726661636500000078
:101B600010B51A2008800A480168001D0468001D8D
:101B70000068081809D008220649FFF7CBFC054980
:101B8000042210312046FFF7C5FC0248801E10BD1C
:101B9000E8F7FF1F4A000020F8B504460020ADF822
:101BA000000048880D46010A082948D2DFE801F004
:101BB0004704091747473C45D4F8B012207C0A680F
:101BC00019E0207C02260028D4F8B40205D0C16AAE
:101BD00068468847014646703EE0816AF8E7C0B231
:101BE00006282CD2DFE800F0030A1014181CD4F8E1
:101BF000B002426805E0694690471CE0D4F8B002A4
:101C00008268E2B1207CF6E7D4F8B002C268F8E757
:101C1000D4F8B0020269F4E7D4F8B0024269F0E700
:101C2000D4F8B0028269ECE7207C40B9D4F8B40261
:101C3000416B6846884701460EE0207C20B129466A
:101C40002046FFF707FFF8BDD4F8B402016B6846E1
:101C50008847014607204870BDF8000048B1EA886F
:101C600052B1824200D90246ADF800202046FFF76B
:101C700007FFE8880028E6D12046FFF70EFFF8BDF1
:101C800070B5002300281ED00446002502E06D1C1C
:101C9000EDB2641C2678002EF9D1022404EB450431
:101CA00014801278CA545B1C0322CA5400245B1CA3
:101CB00006E0CA545B1CDAB28C54521CD3B2401CEE
:101CC0000278002AF5D170BD01004FF0000004D069
:101CD000012901D0022901D002207047012070475C
:101CE000D0F8B802002101730846704770B5044669
:101CF000812100F0CDF80025E562D4F8B80218B1D2
:101D000000F02DFCC4F8B852002070BD0A210180FB
:101D10000048704740010020292101800048704799
:101D2000B00000202921018000487047DC0000201D
:101D300029210180004870470801002010B50446A1
:101D400016230322812100F094F90120E062102083
:101D500000F006FCC4F8B80218B10021017308466F
:101D600010BD022010BD10B5134690F89C42D0F86B
:101D7000B822032C07D1147B2CB9012414730A4612
:101D8000812100F01DFA002010BD000038B5034687
:101D90000022D0F8B802ADF8002014460A7812F0FC
:101DA000600216D0202A4AD14A78022A0ED0032A8D
:101DB00006D00A2A06D00B2A41D18978016042E078
:101DC00001222BE04988090A41603CE00122011D03
:101DD00025E04A7832B1062A0BD00A2A23D00B2AF2
:101DE0002DD128E093F89C02032828D102226946CD
:101DF00015E048882222B2EB102F05D1CA883F2A6D
:101E000000D93F22124809E02122B2EB102F16D14F
:101E10000F48CA881838092A00D9092201461846ED
:101E2000FFF72EFE0FE093F89C22032A07D1012230
:101E300000F10801F3E793F89C22032A05D0184625
:101E4000FFF708FE0224204638BD89788160FAE752
:101E50004C01002010B580B1D0F8B43213B100238A
:101E6000C0F8B43209B1C0F8B012012180F89C1258
:101E7000027000F0BBF8002010BD022010BD10B5AC
:101E8000D0F8C002FEF729FCBDE81040FFF71CBFE8
:101E900010B5D0F8C002FEF7FBFBBDE81040FFF71D
:101EA00013BF2DE9F0411746044651B1D4F8B402EE
:101EB00042691AB194F89C02032851D00220BDE86F
:101EC000F081D4F89432002504F11400022B03D0E1
:101ED000042B3AD0C3B33CE0D0E903639E4207D958
:101EE000F11AC1608AB239462046FFF7ABFD12E015
:101EF0008068B0FBF3F103FB110199B9984211D34B
:101F0000D4F8981288420DD2002211462046FFF7DD
:101F100099FDC4F8985200231A461946204600F04D
:101F2000B4F816E0D4F8B402C16829B194F89C0260
:101F3000032801D1204688478021204600F025F95A
:101F40002046FFF792FD04E0FFE78021204600F0E5
:101F50001CF994F8A002012804D184F8A05201E0F1
:101F6000204690470020AAE770B51546044649B1BF
:101F7000D4F8B40282691AB194F89C02032830D0D4
:101F8000022070BDD4F8941204F5AA70032902D07F
:101F900005291ED027E0D0E903218A420BD9531A24
:101FA000C3600846834200D303469AB229462046BE
:101FB000FFF740FD17E0D4F8B402016929B194F8A5
:101FC0009C02032801D1204688472046FFF765FD83
:101FD00009E000200146C4F89402204600F0D5F83C
:101FE00001E020469047002070BD000010B5174961
:101FF0000446C1F8D402C0F8C01215480860082091
:1020000008710220887100208872C872087308461F
:10201000FEF7CCFE08B1FEF75CF90022D4F8C0024E
:102020001823114604F53074FEF700FB58230022F4
:1020300080212068FEF7FAFA4FF480730022812194
:102040002068FEF7F3FA002010BD000064060020AF
:10205000005C00400A0601F07F01D0F8C00201EBED
:10206000810100EBC10001D5807C704790F85201DE
:10207000704710B51C461346D0F8C0022246FEF742
:1020800068FDBDE81040FFF71FBE10B5D0F8C002D4
:10209000FEF78BFDBDE81040FFF716BE70B50022BD
:1020A000044640231146FFF7E4FF40260125C4F80B
:1020B00064613346002280212046C4F85851FFF75E
:1020C000D8FF6662A56184F89C520020C4F894028F
:1020D0006060C4F8A402D4F8B80228B1D4F8B402FD
:1020E0000021426820469047002070BD90F89C1265
:1020F000042903D190F89D1280F89C1200207047AB
:1021000010B590F89C12032904D1D0F8B412C96913
:1021100001B18847002010BD01740020704710B540
:10212000D0F8C002FEF7D9FEBDE81040FFF7CCBDE5
:1021300070B5044600F52A70054600F04AF8012003
:10214000C4F89402B4F8AE02C4F8980294F8A80255
:1021500010F01F010AD001290DD0022910D000F083
:102160008001204600F011F8002070BD294620466D
:1021700000F09DF8F8E72946204600F0C9F9F3E79A
:102180002946204600F01CF9EEE710B5D0F8C00251
:10219000FEF722FDBDE81040FFF796BD10B5D0F860
:1021A000C002FEF7B4FEBDE81040FFF78DBD90F809
:1021B0009C1280F89D12042180F89C120020704728
:1021C00010B5D0F8C002FEF73FFDBDE81040FFF7A4
:1021D0007BBD0A7802704A7842708A78CB7802EB2D
:1021E000032242800A794B7902EB032282808A79AA
:1021F000C97902EB0121C18070470246002011B16C
:10220000C2F8B41270470220704710B5D0F8B4225B
:1022100002241AB11268904700B90024204610BD6C
:1022200070B50E461E4D897804462970012931D8B3
:1022300094F89C0202280BD003280FD03146204688
:10224000FFF708FC29782046BDE87040FFF7EBBB9C
:10225000D9B10320616084F89C0209E071B1606823
:10226000884212D0C1B22046FFF7DDFB29786160B9
:102270002046FFF7CAFF02280CD006E0022084F8AF
:102280009C0220466160FFF7CEFB2046BDE870400F
:10229000FFF703BC31462046BDE87040FFF7DABBCC
:1022A0007400002010B5FFF779FF002010BD2DE964
:1022B000F0410A78002612F0600208D0202A01D0EE
:1022C000402A70D1D0F8B422926890476DE04B78E4
:1022D000002201250A2B66D2DFE803F0405D655736
:1022E000650805652C29FFF757FC5EE004468888E1
:1022F000D8B9C888C8B94888802816D200F07F07A6
:1023000094F89C02032810D084F89E723946204627
:10231000FFF705FF2046FFF7C0FB1FB1022084F83E
:102320009C0242E084F89C523FE020463BE0FFF7ED
:1023300077FF3AE0CB88012B35D190F89C32012B06
:1023400004D0022B02D0032B2DD104E082600122A5
:1023500000F1080116E00122011D13E090F89C2213
:10236000012A03D0022A01D0032A1CD1CA88022ADA
:1023700019D1C560D0F8A41209B10321C1600222AD
:1023800000F10C01FFF77CFB0FE0498801290CD11B
:10239000C0F8A45211E090F89C32012B08D0022B17
:1023A00006D0032B04D0FFF755FB3046BDE8F08183
:1023B00049880129F9D1C0F8A422FFF76EFBF4E7A0
:1023C0002DE9F0410A46044610780027097910F0FB
:1023D00060030AD0202B01D0402B50D1D4F8B40296
:1023E00011468368204698478FE0C0F341100128CA
:1023F00006D05078D0B301282AD003283FD107E077
:10240000D4F8B402114683682046BDE8F04118476D
:1024100094F89C02022802D0032872D10AE071B31A
:1024200080296ED02046FFF7B0FE80212046FFF7BE
:10243000ACFE6AE0508838B931B1802904D0D08828
:1024400010B92046FFF7A1FE2046FFF726FB5CE00F
:1024500094F89C020228E2D0032852D1508898BBFD
:102460004806F1D02046FFF70AFDEDE7FFE794F8B4
:102470009C020026022803D0032842D112E040E04B
:1024800009B180293DD1080601F07F0000EB8000F2
:1024900004EB800101D5143101E001F5AA7102229B
:1024A0000E602AE0080601F00F0000EB800004EB4C
:1024B00080000AD5806920B301F07F0000EB800026
:1024C00004EB800514350BE01FE0D0F85801C0B1D3
:1024D00001F07F0000EB800004EB800505F5AA7594
:1024E00041B1802906D02046FFF7B4FD10B101208C
:1024F000286000E02E60022229462046FFF7C0FA3D
:1025000003E011462046FFF7A5FA3846BDE8F08102
:1025100070B5054608780C4610F0600003D02028FE
:1025200001D0402816D195F89C02012803D002283A
:1025300001D003280ED1207901280BD8D5F8B40298
:10254000826828469047E188014306D12846FFF774
:10255000A4FA02E02846FFF77DFA002070BD70471C
:1025600000487047500600202DE9F0470C780026FF
:1025700030F8243048F68F121340CA78002A78D0F9
:10258000012A7CD0022A02D0032A75D0012648F203
:102590008002134320F824300D7830F8253048F6B7
:1025A0008F7423402B43134320F825300D7B48F2D2
:1025B000C00948F6BF734CF2800A4BF68F77EDB333
:1025C000CD7891F800C0022D30F82C507DD048F61F
:1025D0008F6805EA0805154320F82C50B0F85050D4
:1025E00091F800C0054405EB0C15B1F808C02CF0BB
:1025F000010CA5F800C4B0F8505091F800C0054493
:1026000005EB0C15B1F80AC02CF0010CA5F808C4B4
:102610004D78002D7ED00D7830F825C05FEA4C4C07
:1026200007D530F825C00CEA040C4CEA0A0C20F857
:1026300025C091F800C030F82C5000E022E06D0673
:1026400006D530F82C50254045EA090520F82C50D5
:10265000CC780D78012C30F8254004EA03047CD0B6
:1026600084F02003134320F82530C1E001E006E0A8
:1026700002E043F400738AE743F4C06387E743F45E
:10268000806384E74D784DB3B0F850500F7805441F
:1026900005EB0715CF8827F00107A5F800740F7820
:1026A00030F827506D0606D530F82750254045EA0A
:1026B000090520F82750CC78012C07D00C7830F889
:1026C0002410194081F0200104E064E00C7830F817
:1026D00024101940114320F8241090E0B0F8503035
:1026E0000D78034403EB0513CD8825F00105A3F80D
:1026F0000854B0F850300D78034403EB0513B3F8D9
:102700000C54C5F30905A3F80C540D6903F20C43EE
:102710003E2D00E045E00BD94FEA551CED0601D1F6
:10272000ACF1010C1D884FF4004848EA8C2C0BE0FA
:1027300035B34FEA550CED0701D00CF1010C1D88A3
:102740004FF6FF7808EA8C2C45EA0C051D800D78C1
:1027500030F825305B0408D500E046E030F825303D
:10276000234043EA0A0320F82530097861B130F8A4
:1027700021303B4083F40053134320F821303EE0E6
:102780001D8845F40045E1E70188394081F4405156
:102790001143018033E0254048F2801845EA0805DE
:1027A0001AE791F800C030F82C506D0406D530F8C7
:1027B0002C50254045EA0A0520F82C5091F800C01D
:1027C00030F82C506D0606D530F82C50254045EADF
:1027D000090520F82C500D7830F825403C4084F451
:1027E0004054144320F8254070E7144320F8254056
:1027F0000B7830F823103940114320F8231030466D
:10280000BDE8F087002070472DE9F04391F80C8077
:102810004F780A7848F6BF7C4BF68F7948F28003F0
:1028200048F2C0054CF2800648F68F74B8F1000FEC
:1028300028D0002F30F822704FEA474748D0002FA9
:1028400005DA30F822702740374320F822700A78E2
:1028500030F822707F0605D530F8227027402F43CC
:1028600020F822700D7830F825202240324320F8DD
:1028700025200C7830F8242002EA0C021A4320F8B4
:1028800024201AE07FB130F82260760605D530F8B2
:10289000226026402E4320F822600A7830F8221069
:1028A00001EA0C010EE030F822506D0405D530F835
:1028B00022502540354320F822500A7830F8221063
:1028C00001EA0901194320F822100020BDE8F08335
:1028D000002F05DA30F822702740374320F82270A5
:1028E0000A7830F82260760605D530F82260264056
:1028F0002E4320F822600E7830F8262022402A430A
:1029000020F826200C7830F8242002EA09021A4325
:1029100020F82420C1E700207047002070470121E3
:1029200020F8401F00210180818001820846704705
:1029300030F8401F21F43F41018000207047002003
:10294000704730B50A7BB2BB4A7848F68F7548F2BB
:102950008004C2B10B7830F82320520607D530F836
:1029600023202A4048F2C0052A4320F82320CA78B1
:10297000012A20D00A7830F8221048F6BF73194097
:1029800081F0200114E00A7830F822305B0407D58A
:1029900030F822302B404CF280052B4320F82230B7
:1029A0000A7830F822104BF68F73194081F44051A9
:1029B000214320F82210002030BD10B54A78097854
:1029C000002A48F2800330F8212005D048F6BF7471
:1029D000224082F0100204E04BF68F74224082F411
:1029E00080521A4320F82120002010BD2DE9F04725
:1029F0000D464B78097B04464FF0000948F68F726C
:102A000048F2800A4FF400474FF6FF78012B09D0B7
:102A100000296FD0E87802286DD001286CD0012001
:102A2000BDE8F087AE692869864200D9064691B1B3
:102A3000E97802291ED0286A801B2862287834F899
:102A400020104906B4F85010214401EB001073D552
:102A5000A0F80C6416E1B3B2EA882046696900F078
:102A600067FAB4F850002978204400EB0110A0F870
:102A700004640DE1296A814277D9297834F821006C
:102A8000104048F28012104324F82100286A801B6D
:102A90002862287834F820104906697871D511B178
:102AA00001292AD030E0B4F85010214401EB001085
:102AB000B0F80C14C1F30901A0F80C1400F20C409A
:102AC0003E2E07D97109F20600D1491E028847EA55
:102AD000812107E04EB17108F20700D0491C02883D
:102AE00008EA81210A4302800EE0018841F4004196
:102AF000018009E0F1E020E195E1B4F850201119DE
:102B000001EB0010A0F80C646A89B3B22046696931
:102B100000F00EFA6869304468612969286A8842C1
:102B200002D9801B286202E00646C5F8209068782A
:102B300018B101282BD032E02FE0B4F850002978EA
:102B4000204400EB0110B0F80414C1F30901A0F80F
:102B5000041400F204403E2E08D97109F20600D197
:102B6000491E028847EA812108E0A1E056B17108B8
:102B7000F20700D0491C028808EA81210A4302803A
:102B80000DE00EE0018841F40041018007E0B4F857
:102B900050002978204400EB0110A0F804642A8931
:102BA00071E011B1012927D02DE0B4F85010214473
:102BB00001EB0010B0F80414C1F30901A0F80414EB
:102BC00000F204403E2E07D97109F20600D1491ED9
:102BD000028847EA812107E04EB17108F20700D070
:102BE000491C028808EA81210A4302800BE001881F
:102BF00041F40041018006E0B4F85010214401EB9B
:102C00000010A0F804642A89B3B22046696900F074
:102C10008FF96869304468612969286A884202D955
:102C2000801B286202E00646C5F82090687810B143
:102C3000012836D026E0B4F850002978204400EB73
:102C40000110B0F80C14C1F30901A0F80C1400F243
:102C50000C403E2E07D97109F20600D1491E0288A8
:102C600047EA812107E04EB17108F20700D0491C04
:102C7000028808EA81210A43028003E0018841F4C6
:102C8000004101806A89B3B22046696900F050F9B9
:102C9000297834F8210048F6BF72104080F03000E7
:102CA0000FE1B4F850100819297800EB0110CFE6B5
:102CB0002A7834F8220048F68F63184040EA0A0068
:102CC00024F82200B4F850002A78204400EB0210C7
:102CD0008BB2A0F804342A89D6E7A9692869814211
:102CE00002D9091AA96102E00846C5F81890B4F89B
:102CF00050102A78214401EB0211B1F80C24C2F3E0
:102D00000902A1F80C2401F20C413E287DD94209A8
:102D1000C00600D1521E088847EA82220AE00888CD
:102D200040F4004007E04208C00700D0521C088869
:102D300008EA822210430880BBE033BBB4F850009D
:102D40002978204400EB0110B0F80414C1F3090104
:102D5000A0F80414296900F204403E2907D94B0960
:102D6000C90600D15B1E018847EA832307E041B111
:102D70004B08C90700D05B1C018808EA832319436C
:102D800002E0018841F400410180687810B1012817
:102D900028D030E0B4F850002978204400EB01102E
:102DA000B0F80C14C1F30901A0F80C14296900F261
:102DB0000C403E2907D94B09C90600D15B1E01888A
:102DC00047EA832307E041B14B08C90700D05B1CE9
:102DD000018808EA8323194302E0018841F4004195
:102DE000018008E0B4F850100819297800EB0110B0
:102DF000298AA0F80C14E869C0B3297834F82100B6
:102E0000430401D5430605D400E046E044F2400304
:102E100018424ED134F82100104048F2C00210434D
:102E200024F8210045E0A9692869814202D9091ADC
:102E3000A96102E00846C5F8189013BBB4F8501019
:102E40002A78214401EB0211B1F80424C2F30902EB
:102E5000A1F8042401F204413E2808D94209C3061E
:102E600000D1521E0B8847EA822208E021E078B1A7
:102E70004208C30700D0521C0B8808EA8222134381
:102E80000B80697800293FF42EAF012909D010E0AA
:102E90000A8842F400420A80F3E700287FF443AF37
:102EA0003DE7B4F8502011192A7801EB0211A1F87E
:102EB0000C04297834F821004BF68F72104080F40E
:102EC000405040EA0A0024F821000020A8E5002133
:102ED000A0F844104FF43F41A0F840100020704784
:102EE0000148FDF7C9BE000064060020B0F84400A8
:102EF0007047000010B500EB42005C0800F58060F0
:102F000009D000BF30F8042B01F8012B120A01F898
:102F1000012B641EF6D1DA0701D00088087010BDBD
:102F20000020704711B98021A0F84C100020704794
:102F300010B55B1C00EB42005B0800F5806009D017
:102F400011F8012B11F8014B42EA042220F8042B5E
:102F50005B1EF5D110BDFEE70907090E002804DB52
:102F600000F1E02080F80014704700F00F0000F13D
:102F7000E02080F8141D70471CB5002400940194D3
:102F8000FDF7C4FAFEF713FDFEF7E0FAFEF716FBB5
:102F9000A246FF4DFF4C4FF400794FF48078012694
:102FA000EB46012202212846FDF79DFA002204216A
:102FB0002846FDF798FA002208212846FDF793FAE3
:102FC000002210212846FDF78EFA20212846FDF721
:102FD00085FA012809D10A20FDF77EF9202128462B
:102FE000FDF77CFA012800D1267040212846FDF724
:102FF00075FA012809D10A20FDF76EF9402128460B
:10300000FDF76CFA012800D1667080212846FDF793
:1030100065FA012809D10A20FDF75EF980212846CA
:10302000FDF75CFA012800D1A67041462846FDF75D
:1030300055FA012809D10A20FDF74EF941462846E4
:10304000FDF74CFA012800D1E6704F464946284664
:10305000FDF744FA012809D10A20FDF73DF9394668
:103060002846FDF73BFA012800D1267100220221F3
:103070002846FDF738FA012204212846FDF733FAE5
:10308000002208212846FDF72EFA002210212846AA
:10309000FDF729FA20212846FDF720FA012809D159
:1030A0000A20FDF719F920212846FDF717FA012813
:1030B00000D1A67440212846FDF710FA012809D155
:1030C0000A20FDF709F940212846FDF707FA0128F3
:1030D00000D1667180212846FDF700FA012809D148
:1030E0000A20FDF7F9F880212846FDF7F7F90128B5
:1030F00000D1A67141462846FDF7F0F9012809D113
:103100000A20FDF7E9F841462846FDF7E7F90128CE
:1031100000D1E671B94639462846FDF7DFF90128A6
:1031200009D10A20FDF7D8F849462846FDF7D6F917
:10313000012800D12672002202212846FDF7D3F98A
:10314000002204212846FDF7CEF901220821284655
:10315000FDF7C9F9002210212846FDF7C4F9202106
:103160002846FDF7BBF9012809D10A20FDF7B4F87C
:1031700020212846FDF7B2F9012800D166724021CE
:103180002846FDF7ABF9012809D10A20FDF7A4F87C
:1031900040212846FDF7A2F9012800D1A67280211E
:1031A0002846FDF79BF9012809D10A20FDF794F87C
:1031B00080212846FDF792F9012800D1E6724746A2
:1031C00041462846FDF78AF9012809D10A20FDF772
:1031D00083F839462846FDF781F9012800D1267386
:1031E00049462846FDF77AF9012809D10A20FDF75A
:1031F00073F849462846FDF771F9012800D1667336
:10320000002202212846FDF76EF9002204212846FB
:10321000FDF769F9002208212846FDF764F901222B
:1032200010212846FDF75FF920212846FDF756F9C1
:10323000012809D10A20FDF74FF820212846FDF783
:103240004DF9012800D1A67340212846FDF746F923
:10325000012809D10A20FDF73FF840212846FDF753
:103260003DF9012800D1E67380212846FDF736F9A3
:10327000012809D10A20FDF72FF880212846FDF703
:103280002DF9012800D1267439462846FDF726F984
:10329000012809D10A20FDF71FF839462846FDF715
:1032A0001DF9012800D16674002051465A46115478
:1032B000401C0728FBDDA37B0020012B02D18DF8E9
:1032C0000060A173637A012B03D102238DF80030D3
:1032D0006172E37B012B04D121208DF80200E173A0
:1032E00001202378012B04D129231718401CBB701F
:1032F00021706378012B04D114231718401CBB7074
:103300006170A378012B04D11A231718401CBB70DD
:10331000A170E378012B04D108231718401CBB705F
:10332000E1702379012B04D115231718401CBB70C1
:103330002171A37C012B07D117182B23BB70401CD4
:10334000A174062800DB05206379012B07D117182B
:103350000423BB70401C6171062800DB0520A379A3
:10336000012B07D117181623BB70401CA17106282A
:1033700000DB0520E379012B07D117180723BB7069
:10338000401CE171062800DB0520237A012B03E0B5
:10339000000801400000002007D117182823BB7047
:1033A000401C2172062800DB0520A37A012B07D1DF
:1033B00017181D23BB70401CA172062800DB0520D6
:1033C000E37A012B07D117181B23BB70401CE17255
:1033D000062800DB0520237B012B07D117180623C5
:1033E000BB70401C2173062800DB0520637B012B8A
:1033F00007D117181023BB70401C6173062800DB2F
:103400000520237C012B07D117180523BB70401C16
:103410002174062800DB0520637C012B03D158446E
:103420002C2383706174082269460248FEF79BFCD6
:10343000B7E500008C010020010202030405060725
:1034400008090A0B0C0D0E0F101000000000000000
:103450000000010203040607080900007C3400088C
:10346000000000208C0100002801000858350008E9
:103470008C010020140E000084010008011413D1F7
:103480001A1408011B1B080D041A35041A61041ACA
:10349000B1141ADD041704030904120132021640A4
:1034A0001F045B4F260201020301031A1A03191FAE
:1034B00011821053127A133D1D1408ED1C1B088D48
:1034C00008811AE11001101A25201A19041A310472
:1034D0001A0D041409022913010125E03209041907
:1034E0007A120115092111011401223F16070581E5
:1034F0000316170A0705010310320AB92CED010360
:1035000001022CA207091F2C2951692C691A3113B9
:103510000A0632022A40E4100E05010906A101053F
:103520000719E029E715281A250175019508810278
:10353000950175088103950575010508190129058F
:103540009112180803910395067508261A65301123
:083550001429658112C000007E
:04000005080000ED02
:00000001FF
